{
  "contractName": "ERC721",
  "abi": [
    {
      "anonymous": false,
      "inputs": [
        {
          "indexed": true,
          "internalType": "address",
          "name": "owner",
          "type": "address"
        },
        {
          "indexed": true,
          "internalType": "address",
          "name": "approved",
          "type": "address"
        },
        {
          "indexed": true,
          "internalType": "uint256",
          "name": "tokenId",
          "type": "uint256"
        }
      ],
      "name": "Approval",
      "type": "event"
    },
    {
      "anonymous": false,
      "inputs": [
        {
          "indexed": true,
          "internalType": "address",
          "name": "from",
          "type": "address"
        },
        {
          "indexed": true,
          "internalType": "address",
          "name": "to",
          "type": "address"
        },
        {
          "indexed": true,
          "internalType": "uint256",
          "name": "tokenId",
          "type": "uint256"
        }
      ],
      "name": "Transfer",
      "type": "event"
    },
    {
      "inputs": [
        {
          "internalType": "address",
          "name": "_owner",
          "type": "address"
        }
      ],
      "name": "balanceOf",
      "outputs": [
        {
          "internalType": "uint256",
          "name": "",
          "type": "uint256"
        }
      ],
      "stateMutability": "view",
      "type": "function"
    },
    {
      "inputs": [
        {
          "internalType": "uint256",
          "name": "_tokenId",
          "type": "uint256"
        }
      ],
      "name": "ownerOf",
      "outputs": [
        {
          "internalType": "address",
          "name": "",
          "type": "address"
        }
      ],
      "stateMutability": "view",
      "type": "function"
    },
    {
      "inputs": [
        {
          "internalType": "address",
          "name": "_to",
          "type": "address"
        },
        {
          "internalType": "uint256",
          "name": "tokenId",
          "type": "uint256"
        }
      ],
      "name": "approve",
      "outputs": [],
      "stateMutability": "nonpayable",
      "type": "function"
    }
  ],
  "bytecode": "0x608060405234801561001057600080fd5b50610725806100206000396000f3fe608060405234801561001057600080fd5b50600436106100415760003560e01c8063095ea7b3146100465780636352211e1461006257806370a0823114610092575b600080fd5b610060600480360381019061005b9190610460565b6100c2565b005b61007c600480360381019061007791906104a0565b61025e565b60405161008991906104dc565b60405180910390f35b6100ac60048036038101906100a791906104f7565b61030f565b6040516100b99190610533565b60405180910390f35b60006100cd8261025e565b90508073ffffffffffffffffffffffffffffffffffffffff163373ffffffffffffffffffffffffffffffffffffffff161461013d576040517f08c379a0000000000000000000000000000000000000000000000000000000008152600401610134906105ab565b60405180910390fd5b8073ffffffffffffffffffffffffffffffffffffffff168373ffffffffffffffffffffffffffffffffffffffff1614156101ac576040517f08c379a00000000000000000000000000000000000000000000000000000000081526004016101a39061063d565b60405180910390fd5b826002600084815260200190815260200160002060006101000a81548173ffffffffffffffffffffffffffffffffffffffff021916908373ffffffffffffffffffffffffffffffffffffffff160217905550818373ffffffffffffffffffffffffffffffffffffffff168273ffffffffffffffffffffffffffffffffffffffff167f8c5be1e5ebec7d5bd14f71427d1e84f3dd0314c0f7b2291e5b200ac8c7c3b92560405160405180910390a4505050565b60008060008084815260200190815260200160002060009054906101000a900473ffffffffffffffffffffffffffffffffffffffff169050600073ffffffffffffffffffffffffffffffffffffffff168173ffffffffffffffffffffffffffffffffffffffff161415610306576040517f08c379a00000000000000000000000000000000000000000000000000000000081526004016102fd906106cf565b60405180910390fd5b80915050919050565b60008073ffffffffffffffffffffffffffffffffffffffff168273ffffffffffffffffffffffffffffffffffffffff161415610380576040517f08c379a0000000000000000000000000000000000000000000000000000000008152600401610377906106cf565b60405180910390fd5b600160008373ffffffffffffffffffffffffffffffffffffffff1673ffffffffffffffffffffffffffffffffffffffff168152602001908152602001600020549050919050565b600080fd5b600073ffffffffffffffffffffffffffffffffffffffff82169050919050565b60006103f7826103cc565b9050919050565b610407816103ec565b811461041257600080fd5b50565b600081359050610424816103fe565b92915050565b6000819050919050565b61043d8161042a565b811461044857600080fd5b50565b60008135905061045a81610434565b92915050565b60008060408385031215610477576104766103c7565b5b600061048585828601610415565b92505060206104968582860161044b565b9150509250929050565b6000602082840312156104b6576104b56103c7565b5b60006104c48482850161044b565b91505092915050565b6104d6816103ec565b82525050565b60006020820190506104f160008301846104cd565b92915050565b60006020828403121561050d5761050c6103c7565b5b600061051b84828501610415565b91505092915050565b61052d8161042a565b82525050565b60006020820190506105486000830184610524565b92915050565b600082825260208201905092915050565b7f43757272656e742063616c6c6572206973206e6f7420746865206f776e657200600082015250565b6000610595601f8361054e565b91506105a08261055f565b602082019050919050565b600060208201905081810360008301526105c481610588565b9050919050565b7f4572726f72202d20617070726f76616c20746f2063757272656e74206f776e6560008201527f7200000000000000000000000000000000000000000000000000000000000000602082015250565b600061062760218361054e565b9150610632826105cb565b604082019050919050565b600060208201905081810360008301526106568161061a565b9050919050565b7f6f776e657220717565727920666f72206e6f6e2d6578697374656e7420746f6b60008201527f656e000000000000000000000000000000000000000000000000000000000000602082015250565b60006106b960228361054e565b91506106c48261065d565b604082019050919050565b600060208201905081810360008301526106e8816106ac565b905091905056fea2646970667358221220d47a6c4a85a7239541dbbd510e10ffc3e3d95612c8ce80835d015e6991c46b6364736f6c63430008090033",
  "immutableReferences": {},
  "source": "// SPDX-License-Identifier: MIT\npragma solidity ^0.8.0;\n\n  /*\n\n  building out the minting function\n    1. nft to point to an address\n    2. keep track of the token ids\n    3. keep track of token owner addresses to token ids\n    4. keep track of how many tokens an owner address has\n    5. create an event that emits a transfer log - contract address, where it is being minted to, the id\n\n  */\n\ncontract ERC721 {\n\n  event Transfer(address indexed from, address indexed to, uint256 indexed tokenId);\n\n  event Approval(\n    address indexed owner,\n    address indexed approved,\n    uint256 indexed tokenId\n  );\n\n  mapping(uint256 => address) private _tokenOwner;\n  mapping(address => uint256) private _ownedTokensCount;\n  mapping(uint256 => address) private _tokenApprovals;\n\n  /// @notice Count all NFTs assigned to an owner\n  /// @dev NFTs assigned to the zero address are considered invalid, and this\n  ///  function throws for queries about the zero address.\n  /// @param _owner An address for whom to query the balance\n  /// @return The number of NFTs owned by `_owner`, possibly zero\n  function balanceOf(address _owner) public view returns (uint256) {\n    require( _owner != address(0), 'owner query for non-existent token');\n    return _ownedTokensCount[_owner];\n  }\n\n  /// @notice Find the owner of an NFT\n  /// @dev NFTs assigned to zero address are considered invalid, and queries\n  ///  about them do throw.\n  /// @param _tokenId The identifier for an NFT\n  /// @return The address of the owner of the NFT\n  function ownerOf(uint256 _tokenId) public view returns (address) {\n    address owner = _tokenOwner[_tokenId];\n    require( owner != address(0), 'owner query for non-existent token');\n    return owner;\n  }\n\n\n  function _exists(uint256 tokenId) internal view returns(bool) {\n    address owner = _tokenOwner[tokenId];\n    return owner != address(0);\n  }\n\n  function _mint(address to, uint256 tokenId) internal virtual {\n    require(to != address(0), 'ERC721: minting to the zero address');\n    require(!_exists(tokenId), 'ERC721: token already minted');\n    _tokenOwner[tokenId] = to;\n    _ownedTokensCount[to] += 1;\n\n    emit Transfer(address(0), to, tokenId);\n  }\n\n  // /// @notice Transfer ownership of an NFT -- THE CALLER IS RESPONSIBLE\n  // ///  TO CONFIRM THAT `_to` IS CAPABLE OF RECEIVING NFTS OR ELSE\n  // ///  THEY MAY BE PERMANENTLY LOST\n  // /// @dev Throws unless `msg.sender` is the current owner, an authorized\n  // ///  operator, or the approved address for this NFT. Throws if `_from` is\n  // ///  not the current owner. Throws if `_to` is the zero address. Throws if\n  // ///  `_tokenId` is not a valid NFT.\n  // /// @param _from The current owner of the NFT\n  // /// @param _to The new owner\n  // /// @param _tokenId The NFT to transfer\n  // function transferFrom(address _from, address _to, uint256 _tokenId) external payable;\n  //   require(isApprovedOrOwner(msg.sender, _tokenId));\n  // }\n\n  // 1. require that the person approving is the owner\n  // 2. we are approving an address to a token (tokenId)\n  // 3. require that we can't approve sending tokens of the owner to the owner (current caller)\n  // 4. update the map of the approval addresses\n  function approve(address _to, uint256 tokenId) public {\n    address owner = ownerOf(tokenId);\n    require(msg.sender == owner, 'Current caller is not the owner');\n    require(_to != owner, 'Error - approval to current owner');\n    _tokenApprovals[tokenId] = _to;\n\n    emit Approval(owner, _to, tokenId);\n  }\n\n  function isApprovedOrOwner(address spender, uint256 tokenId) internal view returns(bool) {\n    require(_exists(tokenId), 'token does not exist');\n    address owner = ownerOf(tokenId);\n    // return(spender == owner || getApproved(tokenId) == spender);\n    return(spender == owner);\n  }\n}\n",
  "sourcePath": "/home/lemonface0309/nft-marketplace-solution/src/contracts/ERC721.sol",
  "compiler": {
    "name": "solc",
    "version": "0.8.9+commit.e5eed63a.Emscripten.clang"
  },
  "schemaVersion": "3.4.3",
  "updatedAt": "2021-10-12T22:15:18.903Z",
  "devdoc": {
    "kind": "dev",
    "methods": {
      "balanceOf(address)": {
        "details": "NFTs assigned to the zero address are considered invalid, and this  function throws for queries about the zero address.",
        "params": {
          "_owner": "An address for whom to query the balance"
        },
        "returns": {
          "_0": "The number of NFTs owned by `_owner`, possibly zero"
        }
      },
      "ownerOf(uint256)": {
        "details": "NFTs assigned to zero address are considered invalid, and queries  about them do throw.",
        "params": {
          "_tokenId": "The identifier for an NFT"
        },
        "returns": {
          "_0": "The address of the owner of the NFT"
        }
      }
    },
    "version": 1
  },
  "userdoc": {
    "kind": "user",
    "methods": {
      "balanceOf(address)": {
        "notice": "Count all NFTs assigned to an owner"
      },
      "ownerOf(uint256)": {
        "notice": "Find the owner of an NFT"
      }
    },
    "version": 1
  }
}