{
  "contractName": "ERC721",
  "abi": [
    {
      "anonymous": false,
      "inputs": [
        {
          "indexed": true,
          "internalType": "address",
          "name": "from",
          "type": "address"
        },
        {
          "indexed": true,
          "internalType": "address",
          "name": "to",
          "type": "address"
        },
        {
          "indexed": true,
          "internalType": "uint256",
          "name": "tokenId",
          "type": "uint256"
        }
      ],
      "name": "Transfer",
      "type": "event"
    },
    {
      "inputs": [
        {
          "internalType": "address",
          "name": "_owner",
          "type": "address"
        }
      ],
      "name": "balanceOf",
      "outputs": [
        {
          "internalType": "uint256",
          "name": "",
          "type": "uint256"
        }
      ],
      "stateMutability": "view",
      "type": "function"
    },
    {
      "inputs": [
        {
          "internalType": "uint256",
          "name": "_tokenId",
          "type": "uint256"
        }
      ],
      "name": "ownerOf",
      "outputs": [
        {
          "internalType": "address",
          "name": "",
          "type": "address"
        }
      ],
      "stateMutability": "view",
      "type": "function"
    }
  ],
  "bytecode": "0x608060405234801561001057600080fd5b5061046a806100206000396000f3fe608060405234801561001057600080fd5b50600436106100365760003560e01c80636352211e1461003b57806370a082311461006b575b600080fd5b6100556004803603810190610050919061023f565b61009b565b60405161006291906102ad565b60405180910390f35b610085600480360381019061008091906102f4565b61014c565b6040516100929190610330565b60405180910390f35b60008060008084815260200190815260200160002060009054906101000a900473ffffffffffffffffffffffffffffffffffffffff169050600073ffffffffffffffffffffffffffffffffffffffff168173ffffffffffffffffffffffffffffffffffffffff161415610143576040517f08c379a000000000000000000000000000000000000000000000000000000000815260040161013a90610382565b60405180910390fd5b80915050919050565b60008073ffffffffffffffffffffffffffffffffffffffff168273ffffffffffffffffffffffffffffffffffffffff1614156101bd576040517f08c379a00000000000000000000000000000000000000000000000000000000081526004016101b490610414565b60405180910390fd5b600160008373ffffffffffffffffffffffffffffffffffffffff1673ffffffffffffffffffffffffffffffffffffffff168152602001908152602001600020549050919050565b600080fd5b6000819050919050565b61021c81610209565b811461022757600080fd5b50565b60008135905061023981610213565b92915050565b60006020828403121561025557610254610204565b5b60006102638482850161022a565b91505092915050565b600073ffffffffffffffffffffffffffffffffffffffff82169050919050565b60006102978261026c565b9050919050565b6102a78161028c565b82525050565b60006020820190506102c2600083018461029e565b92915050565b6102d18161028c565b81146102dc57600080fd5b50565b6000813590506102ee816102c8565b92915050565b60006020828403121561030a57610309610204565b5b6000610318848285016102df565b91505092915050565b61032a81610209565b82525050565b60006020820190506103456000830184610321565b92915050565b600082825260208201905092915050565b50565b600061036c60008361034b565b91506103778261035c565b600082019050919050565b6000602082019050818103600083015261039b8161035f565b9050919050565b7f6f776e657220717565727920666f72206e6f6e2d6578697374656e7420746f6b60008201527f656e000000000000000000000000000000000000000000000000000000000000602082015250565b60006103fe60228361034b565b9150610409826103a2565b604082019050919050565b6000602082019050818103600083015261042d816103f1565b905091905056fea26469706673582212202090cda1b5c287e1aa5451839e731363d28729c1fa7f4e5701739a393e86dd1a64736f6c63430008090033",
  "immutableReferences": {},
  "source": "// SPDX-License-Identifier: MIT\npragma solidity ^0.8.0;\n\n  /*\n\n  building out the minting function\n    1. nft to point to an address\n    2. keep track of the token ids\n    3. keep track of token owner addresses to token ids\n    4. keep track of how many tokens an owner address has\n    5. create an event that emits a transfer log - contract address, where it is being minted to, the id\n\n  */\n\ncontract ERC721 {\n\n  event Transfer(address indexed from, address indexed to, uint256 indexed tokenId);\n\n  mapping(uint256 => address) private _tokenOwner;\n  mapping(address => uint256) private _ownedTokensCount;\n\n  /// @notice Count all NFTs assigned to an owner\n  /// @dev NFTs assigned to the zero address are considered invalid, and this\n  ///  function throws for queries about the zero address.\n  /// @param _owner An address for whom to query the balance\n  /// @return The number of NFTs owned by `_owner`, possibly zero\n  function balanceOf(address _owner) external view returns (uint256) {\n    require( _owner != address(0), 'owner query for non-existent token');\n    return _ownedTokensCount[_owner];\n  }\n\n  /// @notice Find the owner of an NFT\n  /// @dev NFTs assigned to zero address are considered invalid, and queries\n  ///  about them do throw.\n  /// @param _tokenId The identifier for an NFT\n  /// @return The address of the owner of the NFT\n  function ownerOf(uint256 _tokenId) external view returns (address) {\n    address owner = _tokenOwner[_tokenId];\n    require( owner != address(0), '');\n    return owner;\n  }\n\n\n  function _exists(uint256 tokenId) internal view returns(bool) {\n    address owner = _tokenOwner[tokenId];\n    return owner != address(0);\n  }\n\n  function _mint(address to, uint256 tokenId) internal {\n    require(to != address(0), 'ERC721: minting to the zero address');\n    require(!_exists(tokenId), 'ERC721: token already minted');\n    _tokenOwner[tokenId] = to;\n    _ownedTokensCount[to] += 1;\n\n    emit Transfer(address(0), to, tokenId);\n  } \n\n}\n",
  "sourcePath": "/home/lemonface0309/nft-marketplace-solution/src/contracts/ERC721.sol",
  "compiler": {
    "name": "solc",
    "version": "0.8.9+commit.e5eed63a.Emscripten.clang"
  },
  "schemaVersion": "3.4.3",
  "updatedAt": "2021-10-12T06:05:22.928Z",
  "devdoc": {
    "kind": "dev",
    "methods": {
      "balanceOf(address)": {
        "details": "NFTs assigned to the zero address are considered invalid, and this  function throws for queries about the zero address.",
        "params": {
          "_owner": "An address for whom to query the balance"
        },
        "returns": {
          "_0": "The number of NFTs owned by `_owner`, possibly zero"
        }
      },
      "ownerOf(uint256)": {
        "details": "NFTs assigned to zero address are considered invalid, and queries  about them do throw.",
        "params": {
          "_tokenId": "The identifier for an NFT"
        },
        "returns": {
          "_0": "The address of the owner of the NFT"
        }
      }
    },
    "version": 1
  },
  "userdoc": {
    "kind": "user",
    "methods": {
      "balanceOf(address)": {
        "notice": "Count all NFTs assigned to an owner"
      },
      "ownerOf(uint256)": {
        "notice": "Find the owner of an NFT"
      }
    },
    "version": 1
  }
}