{
  "contractName": "KryptoBird",
  "abi": [
    {
      "inputs": [],
      "stateMutability": "nonpayable",
      "type": "constructor"
    },
    {
      "anonymous": false,
      "inputs": [
        {
          "indexed": true,
          "internalType": "address",
          "name": "from",
          "type": "address"
        },
        {
          "indexed": true,
          "internalType": "address",
          "name": "to",
          "type": "address"
        },
        {
          "indexed": true,
          "internalType": "uint256",
          "name": "tokenId",
          "type": "uint256"
        }
      ],
      "name": "Transfer",
      "type": "event"
    },
    {
      "inputs": [
        {
          "internalType": "address",
          "name": "_owner",
          "type": "address"
        }
      ],
      "name": "balanceOf",
      "outputs": [
        {
          "internalType": "uint256",
          "name": "",
          "type": "uint256"
        }
      ],
      "stateMutability": "view",
      "type": "function"
    },
    {
      "inputs": [
        {
          "internalType": "uint256",
          "name": "",
          "type": "uint256"
        }
      ],
      "name": "kryptoBirdz",
      "outputs": [
        {
          "internalType": "string",
          "name": "",
          "type": "string"
        }
      ],
      "stateMutability": "view",
      "type": "function"
    },
    {
      "inputs": [],
      "name": "name",
      "outputs": [
        {
          "internalType": "string",
          "name": "",
          "type": "string"
        }
      ],
      "stateMutability": "view",
      "type": "function"
    },
    {
      "inputs": [
        {
          "internalType": "uint256",
          "name": "_tokenId",
          "type": "uint256"
        }
      ],
      "name": "ownerOf",
      "outputs": [
        {
          "internalType": "address",
          "name": "",
          "type": "address"
        }
      ],
      "stateMutability": "view",
      "type": "function"
    },
    {
      "inputs": [],
      "name": "symbol",
      "outputs": [
        {
          "internalType": "string",
          "name": "",
          "type": "string"
        }
      ],
      "stateMutability": "view",
      "type": "function"
    },
    {
      "inputs": [
        {
          "internalType": "uint256",
          "name": "index",
          "type": "uint256"
        }
      ],
      "name": "tokenByIndex",
      "outputs": [
        {
          "internalType": "uint256",
          "name": "",
          "type": "uint256"
        }
      ],
      "stateMutability": "view",
      "type": "function"
    },
    {
      "inputs": [
        {
          "internalType": "address",
          "name": "owner",
          "type": "address"
        },
        {
          "internalType": "uint256",
          "name": "index",
          "type": "uint256"
        }
      ],
      "name": "tokenOfOwnerByIndex",
      "outputs": [
        {
          "internalType": "uint256",
          "name": "",
          "type": "uint256"
        }
      ],
      "stateMutability": "view",
      "type": "function"
    },
    {
      "inputs": [],
      "name": "totalSupply",
      "outputs": [
        {
          "internalType": "uint256",
          "name": "",
          "type": "uint256"
        }
      ],
      "stateMutability": "view",
      "type": "function"
    },
    {
      "inputs": [
        {
          "internalType": "string",
          "name": "_kryptoBird",
          "type": "string"
        }
      ],
      "name": "mint",
      "outputs": [],
      "stateMutability": "nonpayable",
      "type": "function"
    }
  ],
  "bytecode": "0x60806040523480156200001157600080fd5b506040518060400160405280600a81526020017f4b727970746f42697264000000000000000000000000000000000000000000008152506040518060400160405280600681526020017f4b424952445a00000000000000000000000000000000000000000000000000008152508181816000908051906020019062000098929190620000bc565b508060019080519060200190620000b1929190620000bc565b5050505050620001d1565b828054620000ca906200019b565b90600052602060002090601f016020900481019282620000ee57600085556200013a565b82601f106200010957805160ff19168380011785556200013a565b828001600101855582156200013a579182015b82811115620001395782518255916020019190600101906200011c565b5b5090506200014991906200014d565b5090565b5b80821115620001685760008160009055506001016200014e565b5090565b7f4e487b7100000000000000000000000000000000000000000000000000000000600052602260045260246000fd5b60006002820490506001821680620001b457607f821691505b60208210811415620001cb57620001ca6200016c565b5b50919050565b61142280620001e16000396000f3fe608060405234801561001057600080fd5b50600436106100935760003560e01c80636352211e116100665780636352211e1461013457806370a082311461016457806393ab6e561461019457806395d89b41146101c4578063d85d3d27146101e257610093565b806306fdde031461009857806318160ddd146100b65780632f745c59146100d45780634f6ccce714610104575b600080fd5b6100a06101fe565b6040516100ad9190610c20565b60405180910390f35b6100be610290565b6040516100cb9190610c5b565b60405180910390f35b6100ee60048036038101906100e99190610d14565b61029d565b6040516100fb9190610c5b565b60405180910390f35b61011e60048036038101906101199190610d54565b61034d565b60405161012b9190610c5b565b60405180910390f35b61014e60048036038101906101499190610d54565b6103bf565b60405161015b9190610d90565b60405180910390f35b61017e60048036038101906101799190610dab565b610471565b60405161018b9190610c5b565b60405180910390f35b6101ae60048036038101906101a99190610d54565b610529565b6040516101bb9190610c20565b60405180910390f35b6101cc6105d5565b6040516101d99190610c20565b60405180910390f35b6101fc60048036038101906101f79190610f0d565b610667565b005b60606000805461020d90610f85565b80601f016020809104026020016040519081016040528092919081815260200182805461023990610f85565b80156102865780601f1061025b57610100808354040283529160200191610286565b820191906000526020600020905b81548152906001019060200180831161026957829003601f168201915b5050505050905090565b6000600480549050905090565b60006102a883610471565b82106102e9576040517f08c379a00000000000000000000000000000000000000000000000000000000081526004016102e090611003565b60405180910390fd5b600660008473ffffffffffffffffffffffffffffffffffffffff1673ffffffffffffffffffffffffffffffffffffffff168152602001908152602001600020828154811061033a57610339611023565b5b9060005260206000200154905092915050565b6000610357610290565b821115610399576040517f08c379a00000000000000000000000000000000000000000000000000000000081526004016103909061109e565b60405180910390fd5b600482815481106103ad576103ac611023565b5b90600052602060002001549050919050565b6000806002600084815260200190815260200160002060009054906101000a900473ffffffffffffffffffffffffffffffffffffffff169050600073ffffffffffffffffffffffffffffffffffffffff168173ffffffffffffffffffffffffffffffffffffffff161415610468576040517f08c379a000000000000000000000000000000000000000000000000000000000815260040161045f90611130565b60405180910390fd5b80915050919050565b60008073ffffffffffffffffffffffffffffffffffffffff168273ffffffffffffffffffffffffffffffffffffffff1614156104e2576040517f08c379a00000000000000000000000000000000000000000000000000000000081526004016104d990611130565b60405180910390fd5b600360008373ffffffffffffffffffffffffffffffffffffffff1673ffffffffffffffffffffffffffffffffffffffff168152602001908152602001600020549050919050565b6008818154811061053957600080fd5b90600052602060002001600091509050805461055490610f85565b80601f016020809104026020016040519081016040528092919081815260200182805461058090610f85565b80156105cd5780601f106105a2576101008083540402835291602001916105cd565b820191906000526020600020905b8154815290600101906020018083116105b057829003601f168201915b505050505081565b6060600180546105e490610f85565b80601f016020809104026020016040519081016040528092919081815260200182805461061090610f85565b801561065d5780601f106106325761010080835404028352916020019161065d565b820191906000526020600020905b81548152906001019060200180831161064057829003601f168201915b5050505050905090565b600981604051610677919061118c565b908152602001604051809103902060009054906101000a900460ff16156106d3576040517f08c379a00000000000000000000000000000000000000000000000000000000081526004016106ca90611215565b60405180910390fd5b60088190806001815401808255809150506001900390600052602060002001600090919091909150908051906020019061070e929190610ae4565b50600060016008805490506107239190611264565b905061072f338261076a565b6001600983604051610741919061118c565b908152602001604051809103902060006101000a81548160ff0219169083151502179055505050565b610774828261078b565b61077d8161094d565b61078782826109a2565b5050565b600073ffffffffffffffffffffffffffffffffffffffff168273ffffffffffffffffffffffffffffffffffffffff1614156107fb576040517f08c379a00000000000000000000000000000000000000000000000000000000081526004016107f29061130a565b60405180910390fd5b61080481610a72565b15610844576040517f08c379a000000000000000000000000000000000000000000000000000000000815260040161083b90611376565b60405180910390fd5b816002600083815260200190815260200160002060006101000a81548173ffffffffffffffffffffffffffffffffffffffff021916908373ffffffffffffffffffffffffffffffffffffffff1602179055506001600360008473ffffffffffffffffffffffffffffffffffffffff1673ffffffffffffffffffffffffffffffffffffffff16815260200190815260200160002060008282546108e69190611396565b92505081905550808273ffffffffffffffffffffffffffffffffffffffff16600073ffffffffffffffffffffffffffffffffffffffff167fddf252ad1be2c89b69c2b068fc378daa952ba7f163c4a11628f55a4df523b3ef60405160405180910390a45050565b600481908060018154018082558091505060019003906000526020600020016000909190919091505560016004805490506109889190611264565b600560008381526020019081526020016000208190555050565b600660008373ffffffffffffffffffffffffffffffffffffffff1673ffffffffffffffffffffffffffffffffffffffff1681526020019081526020016000208190806001815401808255809150506001900390600052602060002001600090919091909150556001600660008473ffffffffffffffffffffffffffffffffffffffff1673ffffffffffffffffffffffffffffffffffffffff16815260200190815260200160002080549050610a579190611264565b60076000838152602001908152602001600020819055505050565b6000806002600084815260200190815260200160002060009054906101000a900473ffffffffffffffffffffffffffffffffffffffff169050600073ffffffffffffffffffffffffffffffffffffffff168173ffffffffffffffffffffffffffffffffffffffff161415915050919050565b828054610af090610f85565b90600052602060002090601f016020900481019282610b125760008555610b59565b82601f10610b2b57805160ff1916838001178555610b59565b82800160010185558215610b59579182015b82811115610b58578251825591602001919060010190610b3d565b5b509050610b669190610b6a565b5090565b5b80821115610b83576000816000905550600101610b6b565b5090565b600081519050919050565b600082825260208201905092915050565b60005b83811015610bc1578082015181840152602081019050610ba6565b83811115610bd0576000848401525b50505050565b6000601f19601f8301169050919050565b6000610bf282610b87565b610bfc8185610b92565b9350610c0c818560208601610ba3565b610c1581610bd6565b840191505092915050565b60006020820190508181036000830152610c3a8184610be7565b905092915050565b6000819050919050565b610c5581610c42565b82525050565b6000602082019050610c706000830184610c4c565b92915050565b6000604051905090565b600080fd5b600080fd5b600073ffffffffffffffffffffffffffffffffffffffff82169050919050565b6000610cb582610c8a565b9050919050565b610cc581610caa565b8114610cd057600080fd5b50565b600081359050610ce281610cbc565b92915050565b610cf181610c42565b8114610cfc57600080fd5b50565b600081359050610d0e81610ce8565b92915050565b60008060408385031215610d2b57610d2a610c80565b5b6000610d3985828601610cd3565b9250506020610d4a85828601610cff565b9150509250929050565b600060208284031215610d6a57610d69610c80565b5b6000610d7884828501610cff565b91505092915050565b610d8a81610caa565b82525050565b6000602082019050610da56000830184610d81565b92915050565b600060208284031215610dc157610dc0610c80565b5b6000610dcf84828501610cd3565b91505092915050565b600080fd5b600080fd5b7f4e487b7100000000000000000000000000000000000000000000000000000000600052604160045260246000fd5b610e1a82610bd6565b810181811067ffffffffffffffff82111715610e3957610e38610de2565b5b80604052505050565b6000610e4c610c76565b9050610e588282610e11565b919050565b600067ffffffffffffffff821115610e7857610e77610de2565b5b610e8182610bd6565b9050602081019050919050565b82818337600083830152505050565b6000610eb0610eab84610e5d565b610e42565b905082815260208101848484011115610ecc57610ecb610ddd565b5b610ed7848285610e8e565b509392505050565b600082601f830112610ef457610ef3610dd8565b5b8135610f04848260208601610e9d565b91505092915050565b600060208284031215610f2357610f22610c80565b5b600082013567ffffffffffffffff811115610f4157610f40610c85565b5b610f4d84828501610edf565b91505092915050565b7f4e487b7100000000000000000000000000000000000000000000000000000000600052602260045260246000fd5b60006002820490506001821680610f9d57607f821691505b60208210811415610fb157610fb0610f56565b5b50919050565b7f6f776e657220696e646578206973206f7574206f6620626f756e647300000000600082015250565b6000610fed601c83610b92565b9150610ff882610fb7565b602082019050919050565b6000602082019050818103600083015261101c81610fe0565b9050919050565b7f4e487b7100000000000000000000000000000000000000000000000000000000600052603260045260246000fd5b7f676c6f62616c20696e646578206973206f7574206f6620626f756e6473000000600082015250565b6000611088601d83610b92565b915061109382611052565b602082019050919050565b600060208201905081810360008301526110b78161107b565b9050919050565b7f6f776e657220717565727920666f72206e6f6e2d6578697374656e7420746f6b60008201527f656e000000000000000000000000000000000000000000000000000000000000602082015250565b600061111a602283610b92565b9150611125826110be565b604082019050919050565b600060208201905081810360008301526111498161110d565b9050919050565b600081905092915050565b600061116682610b87565b6111708185611150565b9350611180818560208601610ba3565b80840191505092915050565b6000611198828461115b565b915081905092915050565b7f4572726f72202d206b727970746f4269726420616c726561647920657869737460008201527f7300000000000000000000000000000000000000000000000000000000000000602082015250565b60006111ff602183610b92565b915061120a826111a3565b604082019050919050565b6000602082019050818103600083015261122e816111f2565b9050919050565b7f4e487b7100000000000000000000000000000000000000000000000000000000600052601160045260246000fd5b600061126f82610c42565b915061127a83610c42565b92508282101561128d5761128c611235565b5b828203905092915050565b7f4552433732313a206d696e74696e6720746f20746865207a65726f206164647260008201527f6573730000000000000000000000000000000000000000000000000000000000602082015250565b60006112f4602383610b92565b91506112ff82611298565b604082019050919050565b60006020820190508181036000830152611323816112e7565b9050919050565b7f4552433732313a20746f6b656e20616c7265616479206d696e74656400000000600082015250565b6000611360601c83610b92565b915061136b8261132a565b602082019050919050565b6000602082019050818103600083015261138f81611353565b9050919050565b60006113a182610c42565b91506113ac83610c42565b9250827fffffffffffffffffffffffffffffffffffffffffffffffffffffffffffffffff038211156113e1576113e0611235565b5b82820190509291505056fea2646970667358221220214795613408d1b544a7ba521ae3d0cb181555c634784f28053b6018d300c13464736f6c63430008090033",
  "immutableReferences": {},
  "source": "// SPDX-License-Identifier: MIT\npragma solidity ^0.8.0;\n\nimport './ERC721Connector.sol';\n\ncontract KryptoBird is ERC721Connector {\n\n  string[] public kryptoBirdz;\n\n  mapping(string => bool) _kryptoBirdzExists;\n\n  function mint(string memory _kryptoBird) public {\n    require(!_kryptoBirdzExists[_kryptoBird], 'Error - kryptoBird already exists');\n\n    kryptoBirdz.push(_kryptoBird);\n    uint _id = kryptoBirdz.length - 1;\n\n    _mint(msg.sender, _id);\n\n    _kryptoBirdzExists[_kryptoBird] = true;\n  }\n\n  constructor() ERC721Connector('KryptoBird', 'KBIRDZ') {\n  }\n\n}\n",
  "sourcePath": "/home/lemonface0309/nft-marketplace-solution/src/contracts/KryptoBirdz.sol",
  "compiler": {
    "name": "solc",
    "version": "0.8.9+commit.e5eed63a.Emscripten.clang"
  },
  "schemaVersion": "3.4.3",
  "updatedAt": "2021-10-12T09:20:45.725Z",
  "devdoc": {
    "kind": "dev",
    "methods": {
      "balanceOf(address)": {
        "details": "NFTs assigned to the zero address are considered invalid, and this  function throws for queries about the zero address.",
        "params": {
          "_owner": "An address for whom to query the balance"
        },
        "returns": {
          "_0": "The number of NFTs owned by `_owner`, possibly zero"
        }
      },
      "ownerOf(uint256)": {
        "details": "NFTs assigned to zero address are considered invalid, and queries  about them do throw.",
        "params": {
          "_tokenId": "The identifier for an NFT"
        },
        "returns": {
          "_0": "The address of the owner of the NFT"
        }
      },
      "totalSupply()": {
        "returns": {
          "_0": "A count of valid NFTs tracked by this contract, where each one of  them has an assigned and queryable owner not equal to the zero address"
        }
      }
    },
    "version": 1
  },
  "userdoc": {
    "kind": "user",
    "methods": {
      "balanceOf(address)": {
        "notice": "Count all NFTs assigned to an owner"
      },
      "ownerOf(uint256)": {
        "notice": "Find the owner of an NFT"
      },
      "totalSupply()": {
        "notice": "Count NFTs tracked by this contract"
      }
    },
    "version": 1
  }
}