{
  "contractName": "KryptoBird",
  "abi": [
    {
      "inputs": [],
      "stateMutability": "nonpayable",
      "type": "constructor"
    },
    {
      "anonymous": false,
      "inputs": [
        {
          "indexed": true,
          "internalType": "address",
          "name": "from",
          "type": "address"
        },
        {
          "indexed": true,
          "internalType": "address",
          "name": "to",
          "type": "address"
        },
        {
          "indexed": true,
          "internalType": "uint256",
          "name": "tokenId",
          "type": "uint256"
        }
      ],
      "name": "Transfer",
      "type": "event"
    },
    {
      "inputs": [
        {
          "internalType": "address",
          "name": "_owner",
          "type": "address"
        }
      ],
      "name": "balanceOf",
      "outputs": [
        {
          "internalType": "uint256",
          "name": "",
          "type": "uint256"
        }
      ],
      "stateMutability": "view",
      "type": "function"
    },
    {
      "inputs": [
        {
          "internalType": "uint256",
          "name": "",
          "type": "uint256"
        }
      ],
      "name": "kryptoBirdz",
      "outputs": [
        {
          "internalType": "string",
          "name": "",
          "type": "string"
        }
      ],
      "stateMutability": "view",
      "type": "function"
    },
    {
      "inputs": [],
      "name": "name",
      "outputs": [
        {
          "internalType": "string",
          "name": "",
          "type": "string"
        }
      ],
      "stateMutability": "view",
      "type": "function"
    },
    {
      "inputs": [
        {
          "internalType": "uint256",
          "name": "_tokenId",
          "type": "uint256"
        }
      ],
      "name": "ownerOf",
      "outputs": [
        {
          "internalType": "address",
          "name": "",
          "type": "address"
        }
      ],
      "stateMutability": "view",
      "type": "function"
    },
    {
      "inputs": [],
      "name": "symbol",
      "outputs": [
        {
          "internalType": "string",
          "name": "",
          "type": "string"
        }
      ],
      "stateMutability": "view",
      "type": "function"
    },
    {
      "inputs": [
        {
          "internalType": "string",
          "name": "_kryptoBird",
          "type": "string"
        }
      ],
      "name": "mint",
      "outputs": [],
      "stateMutability": "nonpayable",
      "type": "function"
    }
  ],
  "bytecode": "0x60806040523480156200001157600080fd5b506040518060400160405280600a81526020017f4b727970746f42697264000000000000000000000000000000000000000000008152506040518060400160405280600681526020017f4b424952445a00000000000000000000000000000000000000000000000000008152508181816002908051906020019062000098929190620000bc565b508060039080519060200190620000b1929190620000bc565b5050505050620001d1565b828054620000ca906200019b565b90600052602060002090601f016020900481019282620000ee57600085556200013a565b82601f106200010957805160ff19168380011785556200013a565b828001600101855582156200013a579182015b82811115620001395782518255916020019190600101906200011c565b5b5090506200014991906200014d565b5090565b5b80821115620001685760008160009055506001016200014e565b5090565b7f4e487b7100000000000000000000000000000000000000000000000000000000600052602260045260246000fd5b60006002820490506001821680620001b457607f821691505b60208210811415620001cb57620001ca6200016c565b5b50919050565b610ff980620001e16000396000f3fe608060405234801561001057600080fd5b50600436106100625760003560e01c806306fdde03146100675780636352211e1461008557806370a08231146100b557806393ab6e56146100e557806395d89b4114610115578063d85d3d2714610133575b600080fd5b61006f61014f565b60405161007c91906108f8565b60405180910390f35b61009f600480360381019061009a9190610964565b6101e1565b6040516100ac91906109d2565b60405180910390f35b6100cf60048036038101906100ca9190610a19565b610292565b6040516100dc9190610a55565b60405180910390f35b6100ff60048036038101906100fa9190610964565b61034a565b60405161010c91906108f8565b60405180910390f35b61011d6103f6565b60405161012a91906108f8565b60405180910390f35b61014d60048036038101906101489190610ba5565b610488565b005b60606002805461015e90610c1d565b80601f016020809104026020016040519081016040528092919081815260200182805461018a90610c1d565b80156101d75780601f106101ac576101008083540402835291602001916101d7565b820191906000526020600020905b8154815290600101906020018083116101ba57829003601f168201915b5050505050905090565b60008060008084815260200190815260200160002060009054906101000a900473ffffffffffffffffffffffffffffffffffffffff169050600073ffffffffffffffffffffffffffffffffffffffff168173ffffffffffffffffffffffffffffffffffffffff161415610289576040517f08c379a000000000000000000000000000000000000000000000000000000000815260040161028090610c75565b60405180910390fd5b80915050919050565b60008073ffffffffffffffffffffffffffffffffffffffff168273ffffffffffffffffffffffffffffffffffffffff161415610303576040517f08c379a00000000000000000000000000000000000000000000000000000000081526004016102fa90610d07565b60405180910390fd5b600160008373ffffffffffffffffffffffffffffffffffffffff1673ffffffffffffffffffffffffffffffffffffffff168152602001908152602001600020549050919050565b6004818154811061035a57600080fd5b90600052602060002001600091509050805461037590610c1d565b80601f01602080910402602001604051908101604052809291908181526020018280546103a190610c1d565b80156103ee5780601f106103c3576101008083540402835291602001916103ee565b820191906000526020600020905b8154815290600101906020018083116103d157829003601f168201915b505050505081565b60606003805461040590610c1d565b80601f016020809104026020016040519081016040528092919081815260200182805461043190610c1d565b801561047e5780601f106104535761010080835404028352916020019161047e565b820191906000526020600020905b81548152906001019060200180831161046157829003601f168201915b5050505050905090565b6005816040516104989190610d63565b908152602001604051809103902060009054906101000a900460ff16156104f4576040517f08c379a00000000000000000000000000000000000000000000000000000000081526004016104eb90610dec565b60405180910390fd5b60048190806001815401808255809150506001900390600052602060002001600090919091909150908051906020019061052f9291906107bc565b50600060016004805490506105449190610e3b565b9050610550338261058b565b60016005836040516105629190610d63565b908152602001604051809103902060006101000a81548160ff0219169083151502179055505050565b600073ffffffffffffffffffffffffffffffffffffffff168273ffffffffffffffffffffffffffffffffffffffff1614156105fb576040517f08c379a00000000000000000000000000000000000000000000000000000000081526004016105f290610ee1565b60405180910390fd5b6106048161074b565b15610644576040517f08c379a000000000000000000000000000000000000000000000000000000000815260040161063b90610f4d565b60405180910390fd5b8160008083815260200190815260200160002060006101000a81548173ffffffffffffffffffffffffffffffffffffffff021916908373ffffffffffffffffffffffffffffffffffffffff16021790555060018060008473ffffffffffffffffffffffffffffffffffffffff1673ffffffffffffffffffffffffffffffffffffffff16815260200190815260200160002060008282546106e49190610f6d565b92505081905550808273ffffffffffffffffffffffffffffffffffffffff16600073ffffffffffffffffffffffffffffffffffffffff167fddf252ad1be2c89b69c2b068fc378daa952ba7f163c4a11628f55a4df523b3ef60405160405180910390a45050565b60008060008084815260200190815260200160002060009054906101000a900473ffffffffffffffffffffffffffffffffffffffff169050600073ffffffffffffffffffffffffffffffffffffffff168173ffffffffffffffffffffffffffffffffffffffff161415915050919050565b8280546107c890610c1d565b90600052602060002090601f0160209004810192826107ea5760008555610831565b82601f1061080357805160ff1916838001178555610831565b82800160010185558215610831579182015b82811115610830578251825591602001919060010190610815565b5b50905061083e9190610842565b5090565b5b8082111561085b576000816000905550600101610843565b5090565b600081519050919050565b600082825260208201905092915050565b60005b8381101561089957808201518184015260208101905061087e565b838111156108a8576000848401525b50505050565b6000601f19601f8301169050919050565b60006108ca8261085f565b6108d4818561086a565b93506108e481856020860161087b565b6108ed816108ae565b840191505092915050565b6000602082019050818103600083015261091281846108bf565b905092915050565b6000604051905090565b600080fd5b600080fd5b6000819050919050565b6109418161092e565b811461094c57600080fd5b50565b60008135905061095e81610938565b92915050565b60006020828403121561097a57610979610924565b5b60006109888482850161094f565b91505092915050565b600073ffffffffffffffffffffffffffffffffffffffff82169050919050565b60006109bc82610991565b9050919050565b6109cc816109b1565b82525050565b60006020820190506109e760008301846109c3565b92915050565b6109f6816109b1565b8114610a0157600080fd5b50565b600081359050610a13816109ed565b92915050565b600060208284031215610a2f57610a2e610924565b5b6000610a3d84828501610a04565b91505092915050565b610a4f8161092e565b82525050565b6000602082019050610a6a6000830184610a46565b92915050565b600080fd5b600080fd5b7f4e487b7100000000000000000000000000000000000000000000000000000000600052604160045260246000fd5b610ab2826108ae565b810181811067ffffffffffffffff82111715610ad157610ad0610a7a565b5b80604052505050565b6000610ae461091a565b9050610af08282610aa9565b919050565b600067ffffffffffffffff821115610b1057610b0f610a7a565b5b610b19826108ae565b9050602081019050919050565b82818337600083830152505050565b6000610b48610b4384610af5565b610ada565b905082815260208101848484011115610b6457610b63610a75565b5b610b6f848285610b26565b509392505050565b600082601f830112610b8c57610b8b610a70565b5b8135610b9c848260208601610b35565b91505092915050565b600060208284031215610bbb57610bba610924565b5b600082013567ffffffffffffffff811115610bd957610bd8610929565b5b610be584828501610b77565b91505092915050565b7f4e487b7100000000000000000000000000000000000000000000000000000000600052602260045260246000fd5b60006002820490506001821680610c3557607f821691505b60208210811415610c4957610c48610bee565b5b50919050565b50565b6000610c5f60008361086a565b9150610c6a82610c4f565b600082019050919050565b60006020820190508181036000830152610c8e81610c52565b9050919050565b7f6f776e657220717565727920666f72206e6f6e2d6578697374656e7420746f6b60008201527f656e000000000000000000000000000000000000000000000000000000000000602082015250565b6000610cf160228361086a565b9150610cfc82610c95565b604082019050919050565b60006020820190508181036000830152610d2081610ce4565b9050919050565b600081905092915050565b6000610d3d8261085f565b610d478185610d27565b9350610d5781856020860161087b565b80840191505092915050565b6000610d6f8284610d32565b915081905092915050565b7f4572726f72202d206b727970746f4269726420616c726561647920657869737460008201527f7300000000000000000000000000000000000000000000000000000000000000602082015250565b6000610dd660218361086a565b9150610de182610d7a565b604082019050919050565b60006020820190508181036000830152610e0581610dc9565b9050919050565b7f4e487b7100000000000000000000000000000000000000000000000000000000600052601160045260246000fd5b6000610e468261092e565b9150610e518361092e565b925082821015610e6457610e63610e0c565b5b828203905092915050565b7f4552433732313a206d696e74696e6720746f20746865207a65726f206164647260008201527f6573730000000000000000000000000000000000000000000000000000000000602082015250565b6000610ecb60238361086a565b9150610ed682610e6f565b604082019050919050565b60006020820190508181036000830152610efa81610ebe565b9050919050565b7f4552433732313a20746f6b656e20616c7265616479206d696e74656400000000600082015250565b6000610f37601c8361086a565b9150610f4282610f01565b602082019050919050565b60006020820190508181036000830152610f6681610f2a565b9050919050565b6000610f788261092e565b9150610f838361092e565b9250827fffffffffffffffffffffffffffffffffffffffffffffffffffffffffffffffff03821115610fb857610fb7610e0c565b5b82820190509291505056fea26469706673582212209edbdd9da4a941edbca498e94b06da72a303d289a3518a8d96a595918dbe46ee64736f6c63430008090033",
  "immutableReferences": {},
  "source": "// SPDX-License-Identifier: MIT\npragma solidity ^0.8.0;\n\nimport './ERC721Connector.sol';\n\ncontract KryptoBird is ERC721Connector {\n\n  string[] public kryptoBirdz;\n\n  mapping(string => bool) _kryptoBirdzExists;\n\n  function mint(string memory _kryptoBird) public {\n    require(!_kryptoBirdzExists[_kryptoBird], 'Error - kryptoBird already exists');\n\n    kryptoBirdz.push(_kryptoBird);\n    uint _id = kryptoBirdz.length - 1;\n\n    _mint(msg.sender, _id);\n\n    _kryptoBirdzExists[_kryptoBird] = true;\n  }\n\n  constructor() ERC721Connector('KryptoBird', 'KBIRDZ') {\n  }\n\n}\n",
  "sourcePath": "/home/lemonface0309/nft-marketplace-solution/src/contracts/KryptoBirdz.sol",
  "compiler": {
    "name": "solc",
    "version": "0.8.9+commit.e5eed63a.Emscripten.clang"
  },
  "schemaVersion": "3.4.3",
  "updatedAt": "2021-10-12T06:05:22.932Z",
  "devdoc": {
    "kind": "dev",
    "methods": {
      "balanceOf(address)": {
        "details": "NFTs assigned to the zero address are considered invalid, and this  function throws for queries about the zero address.",
        "params": {
          "_owner": "An address for whom to query the balance"
        },
        "returns": {
          "_0": "The number of NFTs owned by `_owner`, possibly zero"
        }
      },
      "ownerOf(uint256)": {
        "details": "NFTs assigned to zero address are considered invalid, and queries  about them do throw.",
        "params": {
          "_tokenId": "The identifier for an NFT"
        },
        "returns": {
          "_0": "The address of the owner of the NFT"
        }
      }
    },
    "version": 1
  },
  "userdoc": {
    "kind": "user",
    "methods": {
      "balanceOf(address)": {
        "notice": "Count all NFTs assigned to an owner"
      },
      "ownerOf(uint256)": {
        "notice": "Find the owner of an NFT"
      }
    },
    "version": 1
  }
}